:100000000C947B000C94A3000C94A3000C94350E6C
:100010000C94350E0C94350E0C94A3000C94A30094
:100020000C94A3000C94A3000C94A3000C94A300C4
:100030000C94A3000C94A3000C94A3000C94A300B4
:100040000C94EB0D0C94A3000C94B90D0C94930D2F
:100050000C94A3000C94A3000C94A3000C94A30094
:100060000C94A3000C94A3000000000024002700BF
:100070002A0000000008000201000003040700003D
:10008000000000000000CDCCCC3D0AD7233C17B7C0
:10009000D13877CC2B329595E6241FB14F0A00005A
:1000A00020410000C84200401C4620BCBE4CCA1B78
:1000B0000E5AAEC59D7400000000230026002900E2
:1000C00000000000250028002B00040404040404A0
:1000D00004040202020202020303030303030102F7
:1000E00004081020408001020408102001020408C6
:1000F0001020AD0EF21011241FBECFEFD8E0DEBFEE
:10010000CDBF11E0A0E0B1E0EEEAFAE202C0059056
:100110000D92AA3DB107D9F722E0AAEDB1E001C0E6
:100120001D92AE3FB207E1F710E0CAE7D0E004C08D
:100130002197FE010E942213C937D107C9F70E94F7
:10014000740F0C944A150C940000CF92DF92EF923A
:10015000FF92CF93DF93B091EE02A0E08111AB2F1D
:100160008091EF0290E0880F991FAC014A545F4FD5
:10017000C090F402D090F502E090F602F090F70201
:1001800030E020E0FA01C591D491E881B90190E016
:1001900080E0EB23EA130AC02F5F3F4F6C157D050B
:1001A0008E059F0578F36FEF7FEFCB01DF91CF9145
:1001B000FF90EF90DF90CF900895AF92BF92CF92D3
:1001C000DF92EF92FF920F931F93CF93DF936C0117
:1001D0007B018B01040F151FEB015E01AE18BF08F8
:1001E000C017D10759F06991D601ED91FC910190AA
:1001F000F081E02DC6010995892B79F7C501DF91C2
:10020000CF911F910F91FF90EF90DF90CF90BF9013
:10021000AF900895FC01538D448D252F30E0842F3D
:1002200090E0821B930B541710F0CF96089501971E
:100230000895FC01918D828D981761F0A28DAE0F0B
:10024000BF2FB11D5D968C91928D9F5F9F73928F92
:1002500090E008958FEF9FEF0895FC01918D828DBE
:10026000981731F0828DE80FF11D858D90E008958B
:100270008FEF9FEF0895FC01918D228D892F90E0E3
:10028000805C9F4F821B91098F73992708958BE2A1
:1002900092E00E943B0121E0892B09F420E0822FAB
:1002A000089580E090E0892B29F00E944701811198
:1002B0000C9400000895FC01A48DA80FB92FB11D66
:1002C000A35ABF4F2C91848D90E001968F7399278C
:1002D000848FA689B7892C93A089B1898C9183706A
:1002E00080648C93938D848D981306C00288F38963
:1002F000E02D80818F7D80830895EF92FF920F9390
:100300001F93CF93DF93EC0181E0888F9B8D8C8DC1
:1003100098131AC0E889F989808185FF15C09FB7B5
:10032000F894EE89FF896083E889F9898081837078
:10033000806480839FBF81E090E0DF91CF911F9127
:100340000F91FF90EF900895F62E0B8D10E00F5F48
:100350001F4F0F731127E02E8C8D8E110CC00FB61E
:1003600007FCFACFE889F989808185FFF5CFCE01B6
:100370000E945B01F1CFEB8DEC0FFD2FF11DE35AD5
:10038000FF4FF0829FB7F8940B8FEA89FB89808139
:100390008062CFCFCF93DF93EC01888D8823B9F0B3
:1003A000AA89BB89E889F9898C9185FD03C0808180
:1003B00086FD0DC00FB607FCF7CF8C9185FFF2CFFD
:1003C000808185FFEDCFCE010E945B01E9CFDF91F7
:1003D000CF91089590E0FC01EE58FF4F2491FC016D
:1003E000E252FF4F3491FC01E653FF4FE491EE23BC
:1003F000C9F0222339F0233001F1A8F4213019F19A
:10040000223029F1F0E0EE0FFF1FE054FF4FA591DD
:10041000B4918FB7F894EC91611126C030953E23CA
:100420003C938FBF08952730A9F02830C9F02430BD
:1004300049F7809180008F7D03C0809180008F7785
:1004400080938000DFCF84B58F7784BDDBCF84B508
:100450008F7DFBCF8091B0008F778093B000D2CF9B
:100460008091B0008F7DF9CF3E2BDACFCF93DF9311
:1004700090E0FC01E252FF4F249186539F4FFC0114
:1004800084918823C9F090E0880F991FFC01E859F6
:10049000FF4FA591B491FC01E054FF4FC591D49159
:1004A00061110DC09FB7F8948C91209582238C9395
:1004B0008881282328839FBFDF91CF9108956230E0
:1004C00051F49FB7F8943C91822F809583238C93AD
:1004D000E8812E2BEFCF8FB7F894EC912E2B2C9335
:1004E0008FBFEACF3FB7F89480911B0290911C0216
:1004F000A0911D02B0911E0226B5A89B05C02F3FFA
:1005000019F00196A11DB11D3FBFBA2FA92F982F39
:100510008827BC01CD01620F711D811D911D42E034
:10052000660F771F881F991F4A95D1F708958F92FC
:100530009F92AF92BF92CF92DF92EF92FF924B01C8
:100540005C010E9472026B017C010E9472026C19B4
:100550007D098E099F09683E734081059105A8F3C6
:1005600021E0821A9108A108B10888EEC80E83E044
:10057000D81EE11CF11C81149104A104B10429F7D7
:10058000FF90EF90DF90CF90BF90AF909F908F90B3
:100590000895CF92DF92EF92FF920F931F93CF9324
:1005A000DF93CDB7DEB7C054D1400FB6F894DEBFAD
:1005B0000FBECDBF2FB7F8948091270290912802EB
:1005C000A0912902B0912A022FBF4091F0025091D0
:1005D000F1026091F2027091F3028C019D01041B03
:1005E000150B260B370BB901A801403D574061059B
:1005F000710590F48091F802C05CDE4F0FB6F8945C
:10060000DEBF0FBECDBFDF91CF911F910F91FF9045
:10061000EF90DF90CF9008958093F0029093F102D5
:10062000A093F202B093F3021092EB021092EA024E
:100630001092E9021092E8021092E70262E08091C3
:10064000EC020E94360261E070E080E090E00E94DF
:10065000970261E08091EC020E94360260E0809196
:10066000EC020E94EA018091ED028551823020F572
:100670008BE291E10197F1F762E08091EC020E9438
:1006800036028091F90290E08230910538F0880FAF
:10069000991F880F991F05970197F1F7F89480E04B
:1006A0000E94A5006F3F7F4F8F4F9F4F61F41092C4
:1006B000F802789480E0A0CF64E170E080E090E000
:1006C0000E949702D9CF81E00E94A5006F3F7F4F23
:1006D0008F4F9F4F61F38E010F5F1F4F6E018FEBA6
:1006E000C81A8EEFD80A780180E00E94A500F701B1
:1006F000608371838283938381E00E94A500F70168
:100700006483758386839783F8E0EF0EF11CEC1405
:10071000FD0451F7789430E020E0F801C080D180EA
:10072000E280F3804481558166817781FFEFCF16A7
:10073000DF06EF06FF0631F04F3F8FEF58076807DF
:10074000780719F41092F802B5CFF90183E0F59516
:10075000E7958A95E1F7E951FD4F8081880FC4162E
:10076000D506E606F70610F180832F5F3F4F085F3E
:100770001F4F2832310589F64091EB022091E702A4
:100780008091E802280F3327331F8091E902280F58
:10079000311D8091EA02820F932F911D99274817EE
:1007A000190681F681E08093F80226CF8160DCCFC4
:1007B00020912102309122022817390771F490917B
:1007C0001F0280912002981741F0E0911F02F0E093
:1007D000E652FE4F808190E008958FEF9FEF0895DD
:1007E0000895EF92FF920F931F93CF93DF93DC0155
:1007F0005C96ED90FC905D97E114F10479F481E052
:1008000090E013969C938E93129790E080E0DF9196
:10081000CF911F910F91FF90EF9008955196ED9118
:10082000FC91529750968C915097982F90950FB7B6
:100830005E962C915E97122F127021FD6095F894B0
:100840002081112319F1282B2083E7012197F1F74B
:1008500028E0462F50E0308160FF1AC0382B3083EB
:10086000E7012197F1F7BA0175956795215089F74E
:10087000112381F08081892380830FBF5C968D9145
:100880009C910197F1F781E090E0C1CF2923DCCF63
:100890003923E5CF9081892BEFCF20912102309130
:1008A00022022817390771F48091200220911F023B
:1008B00090E0805C9F4F821B910960E470E00E9491
:1008C000EC12089590E080E008952091210230918B
:1008D000220228173907B9F490911F028091200253
:1008E000981789F0E0911F02F0E0E652FE4F8081F8
:1008F00020911F0230E02F5F3F4F2F73332720934B
:100900001F0290E008958FEF9FEF089590E080E040
:1009100008956F3FA9F0E62FE295EF7044E0E49F61
:1009200090011124DC01ED91FC91E20FF31F6F7037
:1009300082819381B6E06B9F800D911D11240895F3
:1009400090E080E00895FC01A281B38180819181D3
:1009500030E020E0A817B90738F4CD010196938361
:1009600082836C9321E030E084819581820F931F14
:10097000958384830895CF93DF93FC0182819381D3
:10098000EB01460F571FA281B38120813181A2174D
:10099000B30758F4C417D50741F02991BD016F5F23
:1009A0007F4F738362832C93EECFA81BB90B848196
:1009B0009581A80FB91FB583A483DF91CF910895C6
:1009C0008F929F92AF92BF92CF92DF92EF92FF925F
:1009D0000F931F93CF93DF93CDB7DEB766970FB614
:1009E000F894DEBF0FBECDBF6C018E01095E1F4FB4
:1009F00078018AE0882E912CA12CB12CCB01BA0170
:100A0000A50194010E940013942F852F605DF801C9
:100A100062938F01A901692F782F41155105610556
:100A2000710561F7A7014E1B5F0BBF01C6010E9454
:100A3000BB0466960FB6F894DEBF0FBECDBFDF9144
:100A4000CF911F910F91FF90EF90DF90CF90BF90CB
:100A5000AF909F908F900895BF92CF92DF92EF92C8
:100A6000FF920F931F93CF93DF938A01F12CE12C18
:100A7000452B39F17F77DC011396ED90FC90C62F62
:100A8000D72FE114F10441F1D70113962C9113975C
:100A90002C171D0659F4F8011496C00FD11FCE175C
:100AA000DF0741F031912D913217C9F3F701E08052
:100AB000F180E5CFD70112968C9112978F5F129635
:100AC0008C93C701DF91CF911F910F91FF90EF9011
:100AD000DF90CF90BF9008956C01CF3FD10509F012
:100AE00048F5BE016B5F7F4F6C177D0718F1FC0165
:100AF00080819181DC01ED91FC910190F081E02DEC
:100B00000995DC01892BB1F01396CC93139781E002
:100B100012968C931297CD010496A8014C0F5D1F7D
:100B20000417150759F0F80121918F01FC01219359
:100B3000CF01F6CF81E0F6018283C3CFCA0FDB1F5E
:100B40001C82F6018381948111969C938E93B483C9
:100B5000A3837D01B6CFDC0152969C9152979150B0
:100B600084E0989F900111245096ED91FC91E20F42
:100B7000F31F228133812115310579F04181808174
:100B8000481758F481E0840F818386E0489F200D48
:100B9000311D11242115310521F460E070E08FEF43
:100BA0000895B901892F8295807F840F0895AF92AF
:100BB000BF92CF92DF92EF92FF920F931F93CF934A
:100BC000DF93EC018B018C8180FF2CC0A881B9815F
:100BD000FB018381948130E020E0009719F1A81790
:100BE000B90709F041C0F8014081518112969C91EA
:100BF0001297915012969C931297911113C08D9158
:100C00009C9111972115310561F1F9019183808340
:100C1000FA0180819181FC0122813381BD01CA01E9
:100C2000F90109958C81807631F1209721F1F880C6
:100C30005801F5E1AF0EB11C8FEFF816D1F06F2D12
:100C4000C5010E9489046C01FC01E580B8010E9485
:100C5000D705F801818DF6018083F801F18EFE2C15
:100C6000EBCF94838383D4CF9C01FC01808191815D
:100C7000B4CFF882F9821C82DF91CF911F910F913E
:100C8000FF90EF90DF90CF90BF90AF900895FB0161
:100C900001900020E9F73197AF01461B570BDC01AB
:100CA000ED91FC910280F381E02D09940F931F9345
:100CB000CF93DF93EC010E9447068C0168E371E05B
:100CC000CE010E944706800F911FDF91CF911F91A7
:100CD0000F910895FB0101900020E9F73197AF01D2
:100CE000461B570B0C94BB04CF92DF92EF92FF92FE
:100CF0000F931F93CF93DF938C016B017A0162E214
:100D00000E94A304E601EC0CFD1CEC16FD0699F014
:100D10006991EBE3F1E0D480DD20C9F03296838164
:100D20006813F9CF6CE5C8010E94A3046D2DC801BA
:100D30000E94A304EACF62E2C801DF91CF911F9124
:100D40000F91FF90EF90DF90CF900C94A30461116E
:100D5000EECF6EE471E0C8010E946A06D6CF2F92F2
:100D60003F924F925F926F927F928F929F92AF923B
:100D7000BF92CF92DF92EF92FF920F931F93CF9388
:100D8000DF93CDB7DEB76B970FB6F894DEBF0FBE1B
:100D9000CDBF7C018B01DC0114968C9114978A30B5
:100DA00009F4A0C2F0F4843009F479C268F4833005
:100DB00009F490C265E571E0C8010E946A06D80195
:100DC00014968D919C9129C2853009F47BC286309E
:100DD00089F78C916AE571E0811155C06FE571E08A
:100DE00052C08E3009F440C0C8F48C3019F7CD9051
:100DF000DD90ED90FC90B701A601F7FE0BC06DE20F
:100E0000C8010E94A30444275527BA014C195D0963
:100E10006E097F09C8010E94E004FCC1803209F418
:100E200015C2803439F66BE5C8010E94A304D701CE
:100E3000FC90BFEFFB1609F4E9C1F80186819781A8
:100E40006F2D45960E9489047C01B8010E94AF066F
:100E5000D7011596FC90BFEFFB1609F4D7C16CE2E1
:100E6000C8010E94A304E5CFF70180809180A28091
:100E7000B380A5019401C501B4010E947B118823B0
:100E800031F065E571E0C8010E946A06C3C120E047
:100E900030E0A901C501B4010E947B11882371F0E3
:100EA000A5019401C501B4010E940F119B01AC0181
:100EB000C501B4010E947B11882319F320E030E0C2
:100EC000A901C501B4010E947B1187FF08C06DE232
:100ED000C8010E94A304B7FAB094B7F8B09420E810
:100EE00036E948E15BE4C501B4010E94611287FD67
:100EF00083C074E1C72ED12CE0E2EE2EF12C312C10
:100F0000212CF601E256FF4F6591759185919491E0
:100F1000A50194010E947B1118167CF0F601EA5796
:100F2000FF4F2591359145915491C501B4010E941F
:100F300066124B015C012E0C3F1CF594E794F4E023
:100F4000CF1AD1082CEFC2162FEFD206D1F63FEF01
:100F50003F8B20E030E0A901C501B4010E9461127D
:100F600018160CF051C02CEA35EC47E257E3C501E6
:100F7000B4010E947B1118160CF446C0AF89B4E08E
:100F8000AB02C0011124D12CC12CFC01EA57FF4F48
:100F90002F019C0122563F4F39013F893F3F09F401
:100FA00033C0F201EC0DFD1D659175918591949111
:100FB00020E030E040E251E40E946612A501940175
:100FC0000E94611218167CF4F301EC0DFD1D2591B1
:100FD000359145915491C501B4010E9466124B01AF
:100FE0005C012E183F08F594E7948F8981508F8B10
:100FF00094E0C91AD108D1CF50E2E52EF12C85E05A
:101000008F8B312C212CA5CFC501B4010E948011FA
:101010006B017C012B013C0180E492E4AFE0B0E085
:10102000888F998FAA8FBB8F96E09F8BAAE04A1674
:10103000510461047104E0F0688D798D8A8D9B8D77
:101040002AE030E040E050E00E940013288F398F02
:101050004A8F5B8FBF89B150BF8BC301B2012AE0B9
:1010600030E040E050E00E94001329013A01DECF59
:10107000C701B6010E94AF119B01AC01C501B401CB
:101080000E940E114B015C01688D798D8A8D9B8DBC
:101090000E94AF119B01AC01C501B4010E94661210
:1010A0002B013C010E9480114B015C010E94AF1199
:1010B0009B01AC01C301B2010E940E119B01AC0166
:1010C0000E940F110E948011860E971EA81EB91E45
:1010D000888D998DAA8DBB8D88169906AA06BB06A8
:1010E000C0F09FEFC91AD90AE90AF90A211431049C
:1010F00039F1AAE0CA16D104E104F10408F1BFEF06
:101100002B1A3B0A812C912C5401C12CD12C760135
:10111000C3942AE0422E512C612C712CC501B401DC
:10112000A30192010E940013672B682B692B61F4C5
:10113000EF891E164CF449015A01E150EF8BEECFB6
:10114000812C912C5401E5CFB701A601C8010E9462
:10115000E004FF89FF2391F16E0121E1C20ED11C51
:10116000F88F76019AE0492E512C612C712C388D24
:101170003150388F3F3F69F0C501B401A30192019E
:101180000E940013605DD6016E936D0149015A0102
:10119000EECFBF898B2F90E0BC0160957095F70171
:1011A000E81BF90B31978EE2808344275527461BB5
:1011B000570B6E0D7F1DC8010E94BB042114310422
:1011C00049F165E6C8010E94A304710137FE07C01A
:1011D0006DE2C8010E94A304F194E194F108FE01BC
:1011E00077969F018AE0C82ED12CC701B6010E94D4
:1011F000D812805D82937B01672BB9F7A9014E1B42
:101200005F0BBF01C8010E94BB0404C06DE5C801AB
:101210000E94A304F801848195816B960FB6F8941F
:10122000DEBF0FBECDBFDF91CF911F910F91FF9019
:10123000EF90DF90CF90BF90AF909F908F907F9076
:101240006F905F904F903F902F9008956BE7C8018B
:101250000E94A304D701FC90EE24E394BB24B39432
:10126000BFEFFB16D1F0F801868197816F2D45966F
:101270000E9489046C01B8010E94AF06D601159640
:10128000FC90BFEFFB1639F06AE3E11001C06CE29D
:10129000C8010E94A304EB24E3CF6DE7B8CF6D91A2
:1012A0007C9150E040E06115710541F0FB01019037
:1012B0000020E9F73197AF01461B570BC8010E9488
:1012C0007406A8CFED91FC91438150E0BF016C5FA3
:1012D0007F4FF4CFED91FC91438150E0BF016C5FF3
:1012E0007F4F90CF4D915D916D917C9193CDBF9249
:1012F000CF92DF92EF92FF920F931F93CF93DF93E2
:10130000EC01198D1F3F81F0612F45960E948904E1
:10131000FC018081898F309709F477C014828FEFA8
:101320008583BF01812F76C06C0135E0C30ED11CCF
:10133000E880F9808F89882341F0C6010E94AB05BF
:10134000E62FF72F182F309749F71F89988D19131B
:1013500024C0103109F459C0110F6D897E89D7015D
:10136000ED91FC91B4E01B9FA0011124C616D70695
:1013700009F044C00190F081E02DBA01C701099540
:10138000009709F442C020E1F601DC0101900D92C2
:101390002A95E1F79E8B8D8B188F0D891E898F8979
:1013A00021E0280F2F8BE4E08E9FC0011124080F4D
:1013B000191F90E1B92E203111F48FE0B82EF6E01C
:1013C000BF9EB0011124D701ED91FC910190F081F5
:1013D000E02DC7010995F80193838283892B09F4D5
:1013E000B12CD801BC9211961C92012B71F0C60150
:1013F0000E94AB05E62FF72F182F8DCF0480F581C3
:10140000E02DC7010995009729F681E08A8360E005
:1014100070E08FEFDF91CF911F910F91FF90EF90D0
:10142000DF90CF90BF9008952F923F924F925F929E
:101430006F927F928F929F92AF92BF92CF92DF92E4
:10144000EF92FF920F931F93CF93DF93EC018A01EA
:1014500041155105B1F410E000E0C801DF91CF91D2
:101460001F910F91FF90EF90DF90CF90BF90AF90C2
:101470009F908F907F906F905F904F903F902F90B4
:1014800008958C81811131C080E28C83209719F3FB
:101490008FEF8883898379013B01452E542E6901A2
:1014A00085E1C80ED11C6881C6010E948904FC0137
:1014B00033243A94892B09F035805301E894B7F826
:1014C000222423944501800E911E309799F1222009
:1014D00009F466C08481843071F0853009F453C00A
:1014E00090E080E0B0E0A0E015C0803209F0B3CF1A
:1014F000209789F6B0CFA081B18190E080E010976D
:1015000041F0FD0101900020E9F73197CF018A1BDE
:101510009B0B9F77A816B90609F042C0F8018E16FA
:101520009F06C9F5632DC6010E9489048C01892B91
:1015300009F093CFC7010E947709882E5B01672BC2
:1015400009F489CFC7010E947709982E962F092F99
:10155000172F0115110509F47ECF772D77FE2CC0CA
:1015600084E0F5018483852D942D91838083F5019A
:10157000958269816F3F71F1C6010E948904FC0167
:10158000858299826ACF0190F081E02DDF01149667
:10159000838190E0BFCF91918D91981709F4BFCFCF
:1015A000E1E02E26632DC6010E948904FC01892BEF
:1015B00009F48BCF358089CF7F77452D542D662D4B
:1015C000C7010E942C05009709F445CF25E0F501DD
:1015D0002483CBCF8882D5CFCF92DF92EF92FF9238
:1015E0000F931F93CF93DF93FC0100811181C801FA
:1015F0004A9619F17B01428153816481758198017A
:101600000E94140AEC010097C1F0F701C080D1805C
:10161000E280F380B8010E94D7058EE08C83C882F7
:10162000D982EA82FB8281E0DF91CF911F910F91F5
:10163000FF90EF90DF90CF90089580E0F5CFCF92AC
:10164000DF92EF92FF920F931F93CF93DF93CDB76B
:10165000DEB7C85FD1090FB6F894DEBF0FBECDBFAD
:101660000E94C902882349F08091ED028B3028F056
:101670008D3040F085518230E0F160E070E080EC28
:101680009FE71CC06091E80270E090E080E00E945B
:10169000B1112DEC3CEC4CEC5DE30E9466126B0149
:1016A0007C016091E70270E090E080E00E94B1115F
:1016B0009B01AC01C701B6010E940F11CF50DF4F53
:1016C000688379838A839B83C15FD0400E94C9026B
:1016D000882341F08091ED028C3009F49AC0D8F44F
:1016E0008B3091F1C12CD12C80ECE82E8FE7F82EB5
:1016F00055C06091E7027091E80276276727762748
:1017000090E080E00E94AF112DEC3CEC4CEC5DE3EE
:101710000E946612D3CF8551823020F71091E902E2
:10172000612F70E0762F662766277F778091EA0227
:10173000682B90E080E00E94AF112DEC3CEC4CEC6B
:101740005DE30E94661281C06091E90270E090E062
:1017500080E00E94AF116B017C011091EA0217FF3B
:101760000AC0AC019B0160E070E080E89FEB0E9442
:101770000E116B017C011F70612F70E090E080E022
:101780000E94B1112DEC3CEC4CEC5DE30E94661222
:10179000A70196010E940F116B017C01CB50DF4F16
:1017A000C882D982EA82FB82C55FD040CF50DF4F2A
:1017B000688179818A819B81C15FD0409B01AC01A6
:1017C0000E94D312811109C0A7019601C701B60179
:1017D0000E94D312882309F441C065E671E08BE2D0
:1017E00092E00E94560665E671E088EC92E00E9465
:1017F0005606C850DF4F0FB6F894DEBF0FBECDBF00
:10180000DF91CF911F910F91FF90EF90DF90CF90DC
:1018100008951091E902612F70E090E080E00E944D
:10182000AF116B017C016091EA026F7070E090E093
:1018300080E00E94B1112DEC3CEC4CEC5DE30E9489
:101840006612A70196010E940F116B017C0117FF20
:10185000A5CFF7FAF094F7F8F094A0CF80E091E0EC
:10186000C753DF4F99838883C95CD040C553DF4F8E
:101870001882CB5CD040C453DF4F19821882CC5CF5
:10188000D04089EC90E08C0F9D1F0596C252DF4F2F
:1018900099838883CE5DD040C052DF4F1882C05EEE
:1018A000D04084E0CF51DF4F8883C15ED0408FEFBE
:1018B000CE51DF4F8883C25ED040C951DF4F1882BE
:1018C000C75ED040C851DF4F8883C85ED0408AE7EA
:1018D00091E09C838B8382E08D838E818078806809
:1018E0008E834B815C816D817E819E0127533F4FAA
:1018F000C9014A960E94140A7C01C0900201D0904E
:101900000301C114D10409F495C0F601019000202F
:10191000E9F731978F010C191D09009709F0DFC015
:10192000E9ECF0E0EC0FFD1FFA83E9838EE891E02B
:101930009C838B838BE08D838E81807880688E83FF
:10194000BE016B507F4F8E010F5F1F4FC8010E9479
:10195000EC0A89EC90E08C0F9D1F9A8389838AE9B9
:1019600091E09C838B8387E08D838E818078806873
:101970008E83BE016F507F4FC8010E94EC0AA9EC14
:10198000B0E0AC0FBD1FC751DF4FB983A883C95E5C
:10199000D040C551DF4F19830883CB5ED040C3517F
:1019A000DF4F19821882CD5ED040C151DF4FB9831D
:1019B000A883CF5ED040BE0167517F4FCD014A96CC
:1019C0000E94AF06883C910520F4800F911FFC0116
:1019D0001082B80188EC92E00E9456066DE771E033
:1019E0008BE292E00E944706B8018BE292E00E94EF
:1019F0005606C753DF4F08811981C95CD040C453D4
:101A0000DF4F68817981CC5CD04061157105D9F0D8
:101A1000DB018D919C91C453DF4F99838883CC5C0B
:101A2000D040D801ED91FC910280F381E02DC801F6
:101A30000995E5CF009709F473CFBE0167537F4F37
:101A40000E94D7056DCFC753DF4F08811981C95C4C
:101A5000D040D12CC252DF4F68817981CE5DD04019
:101A6000C052DF4F8881C05ED040D816D8F4B4E0B1
:101A7000DB9E70011124E60EF71EF701628173816F
:101A80006115710541F0D801ED91FC910280F3815F
:101A9000E02DC8010995F70113821282108211828C
:101AA000D394D8CFC052DF4F1882C05ED0408FEFA2
:101AB000CE51DF4F8883C25ED04089EC90E08C0F1E
:101AC0009D1F05966817790709F493CED801ED910B
:101AD000FC910280F381E02DC80109958ACEBE01F8
:101AE00067537F4F0E94D705712F7F777F77A601BD
:101AF000602FCE0187539F4F0E942C05009709F459
:101B00000FCF25E0D70114962C9314978D939C93B7
:101B100007CFCB01BA010C944D14CB010C94C41324
:101B2000CB010C9428131F920F920FB60F92112421
:101B30002F933F934F935F936F937F938F939F93D5
:101B4000AF93BF93EF93FF938BE292E00E945B0110
:101B5000FF91EF91BF91AF919F918F917F916F9185
:101B60005F914F913F912F910F900FBE0F901F905B
:101B700018951F920F920FB60F9211242F938F93E7
:101B80009F93EF93FF93E0913B02F0913C028081A1
:101B9000E0914102F091420282FD1BC09081809150
:101BA00044028F5F8F7320914502821741F0E091CC
:101BB0004402F0E0E55DFD4F958F80934402FF9174
:101BC000EF919F918F912F910F900FBE0F901F90CB
:101BD00018958081F4CF1F920F920FB60F921124A7
:101BE0002F933F938F939F93AF93BF93809127023F
:101BF00090912802A0912902B0912A0230911A02F4
:101C000023E0230F2D3758F50196A11DB11D209318
:101C10001A028093270290932802A0932902B0937E
:101C20002A0280911B0290911C02A0911D02B0918A
:101C30001E020196A11DB11D80931B0290931C02F0
:101C4000A0931D02B0931E02BF91AF919F918F91FF
:101C50003F912F910F900FBE0F901F90189526E87F
:101C6000230F0296A11DB11DD2CF1F920F920FB666
:101C70000F9211242F933F934F935F936F937F9312
:101C80008F939F93AF93BF93EF93FF93E0912102C4
:101C9000F0912202309749F0A685B7858585968D0B
:101CA00091FF14C09C918923A1F4FF91EF91BF9102
:101CB000AF919F918F917F916F915F914F913F91E4
:101CC0002F910F900FBE0F901F9018959C91892314
:101CD00061F7A389B4899C918589809589238C9328
:101CE000868997890197F1F7608D718DA685B785F3
:101CF000558538E020E0CB010197F1F7822F90E085
:101D000095958795282F4C91452309F020683150EF
:101D100091F7868D81FD20958091200290E00196BB
:101D20008F73992730911F02381799F0A0912002E4
:101D3000B0E0A652BE4F2C9380932002828D938DEB
:101D40000197F1F7A389B4898C919589892B8C939C
:101D5000ACCF868D8160868FF1CF10922E021092CB
:101D60002D0288EE93E0A0E0B0E080932F029093E4
:101D70003002A0933102B093320228E131E0309377
:101D80002C0220932B0225EC30E030933802209374
:101D9000370224EC30E030933A022093390220ECF1
:101DA00030E030933C0220933B0221EC30E0309352
:101DB0003E0220933D0222EC30E03093400220931B
:101DC0003F0226EC30E03093420220934102109211
:101DD000440210924502109246021092470226E0F9
:101DE0002093EC0226E12093ED02E4EEF0E0E49192
:101DF000E093EE02E0EDF0E0E491E093EF0240E8E2
:101E00005EE360E070E04093F4025093F50260936B
:101E1000F6027093F7021092CB021092CA028093DE
:101E2000CC029093CD02A093CE02B093CF028AE26F
:101E300091E09093C9028093C8021092DF02109241
:101E4000DE021092E1021092E0021092E302109280
:101E5000E2021092E5021092E4026091E6026E7FC7
:101E60006D7F6093E6026695617081E0682785E08A
:101E70000E94EA0161E085E00E943602E3EEF0E0B4
:101E8000E491E093D802EFECF0E0E491F0E0EE0FA3
:101E9000FF1FE054FF4F859194919093DA02809355
:101EA000D90260E084E00E9436028091E60281FD62
:101EB00004C061E084E00E94EA0184E08093D402DF
:101EC000E2EEF0E0E491E093D502EEECF0E0E49194
:101ED000F0E0EE0FFF1FEA54FF4F8591949190932D
:101EE000D7028093D6020895789484B5826084BD29
:101EF00084B5816084BD85B5826085BD85B581600E
:101F000085BD80916E00816080936E00109281008B
:101F10008091810082608093810080918100816046
:101F20008093810080918000816080938000809107
:101F3000B10084608093B1008091B0008160809393
:101F4000B00080917A00846080937A0080917A005A
:101F5000826080937A0080917A00816080937A0019
:101F600080917A00806880937A001092C100E0919D
:101F70003B02F0913C0282E08083E0913702F091D5
:101F800038021082E0913902F0913A0280E18083B8
:101F900010924302E0913F02F091400286E080837C
:101FA000E0913D02F0913E02808180618083E0916A
:101FB0003D02F0913E02808188608083E0913D0285
:101FC000F0913E02808180688083E0913D02F09133
:101FD0003E0280818F7D808364E670E080E090E047
:101FE0000E9497021092E3021092E2021092E10224
:101FF0001092E0021092DF021092DE028DE991E071
:102000009093E5028093E4029091D402963108F017
:1020100047C02DEB30E03093DF022093DE022BE946
:1020200031E03093E1022093E0022CE231E0309382
:10203000E3022093E2022091680084E0983048F0A7
:1020400031E09E3008F430E081E001C0880F3A951D
:10205000EAF7822B809368002DE630E0983050F04C
:102060002BE630E09E3030F02CE630E0963110F078
:1020700030E020E03093DC022093DB02292F30E0B7
:10208000983008F0A2C081E001C0880F9A95EAF765
:102090008093DD028091E4029091E5020197F1F7CF
:1020A0008091E2029091E302892B49F1E0912102B3
:1020B000F091220202E0E83CF00709F1309739F094
:1020C000A389B4899C918589809589238C9380917B
:1020D000E6028E7F8093E6021092200210921F0289
:1020E00088EC92E09093220280932102E091DB023F
:1020F000F091DC0280819091DD02892B808364E67F
:1021000070E080E090E00E94970262E08091EC0233
:102110000E9436022FB7F8948091270290912802EE
:10212000A0912902B0912A022FBF805D9740A1099A
:10213000B1098093F0029093F102A093F202B09360
:10214000F30287E38093F90262EA71E08BE292E0A6
:102150000E94560662EA71E088EC92E00E94560600
:10216000C0E0D0E02FB7F894809127029091280228
:10217000A0912902B0912A022FBF409123025091D1
:10218000240260912502709126028C019D01041B9E
:10219000150B260B370BB901A80148355B416105CA
:1021A000710550F08093230290932402A09325029E
:1021B000B09326020E941F0B2097A1F20E944701B4
:1021C000882381F20E940000CDCF9E3040F4285039
:1021D000310981E001C0880F2A95EAF759CF2E50C6
:1021E0003109F7CF8AE291E09093C9028093C80247
:1021F0008091210290912202885C924071F4E091DA
:10220000DB02F091DC0290818091DD0280958923D0
:102210008083109222021092210208955058BB2709
:10222000AA270E9426110C9427120E94191238F036
:102230000E94201220F039F49F3F19F426F40C94E8
:1022400016120EF4E095E7FB0C941012E92F0E9491
:10225000381258F3BA17620773078407950720F0FE
:1022600079F4A6F50C945A120EF4E0950B2EBA2FC1
:10227000A02D0B01B90190010C01CA01A00111248C
:10228000FF27591B99F0593F50F4503E68F11A1638
:10229000F040A22F232F342F4427585FF3CF4695C9
:1022A00037952795A795F0405395C9F77EF41F16EB
:1022B000BA0B620B730B840BBAF09150A1F0FF0FB5
:1022C000BB1F661F771F881FC2F70EC0BA0F621FA1
:1022D000731F841F48F4879577956795B795F79591
:1022E0009E3F08F0B0CF9395880F08F09927EE0F26
:1022F0009795879508950E94EC1108F481E0089560
:102300000E94401288F09F5798F0B92F9927B75133
:10231000B0F0E1F0660F771F881F991F1AF0BA9589
:10232000C9F714C0B13091F00E945A12B1E008957B
:102330000C945A12672F782F8827B85F39F0B93F6D
:10234000CCF3869577956795B395D9F73EF490953C
:102350008095709561957F4F8F4F9F4F0895E894BA
:1023600009C097FB3EF490958095709561957F4FDD
:102370008F4F9F4F9923A9F0F92F96E9BB2793958B
:10238000F695879577956795B795F111F8CFFAF49B
:10239000BB0F11F460FF1BC06F5F7F4F8F4F9F4FCC
:1023A00016C0882311F096E911C0772321F09EE82A
:1023B000872F762F05C0662371F096E8862F70E090
:1023C00060E02AF09A95660F771F881FDAF7880F6A
:1023D0009695879597F90895990F0008550FAA0BC0
:1023E000E0E8FEEF16161706E807F907C0F0121628
:1023F0001306E407F50798F0621B730B840B950B2B
:1024000039F40A2661F0232B242B252B21F408957F
:102410000A2609F4A140A6958FEF811D811D08951C
:1024200097F99F6780E870E060E008959FEF80EC87
:10243000089500240A94161617061806090608952A
:1024400000240A9412161306140605060895092E90
:102450000394000C11F4882352F0BB0F40F4BF2BFF
:1024600011F460FF04C06F5F7F4F8F4F9F4F08953F
:1024700057FD9058440F551F59F05F3F71F0479535
:10248000880F97FB991F61F09F3F79F0879508951A
:10249000121613061406551FF2CF4695F1DF08C039
:1024A000161617061806991FF1CF86957105610556
:1024B00008940895E894BB2766277727CB0197F9FE
:1024C00008950E94EC1108F48FEF08950E9479128C
:1024D0000C9427120E94191238F00E94201220F04A
:1024E000952311F00C9410120C94161211240C94D4
:1024F0005B120E94381270F3959FC1F3950F50E064
:10250000551F629FF001729FBB27F00DB11D639FA5
:10251000AA27F00DB11DAA1F649F6627B00DA11D4B
:10252000661F829F2227B00DA11D621F739FB00DF1
:10253000A11D621F839FA00D611D221F749F332761
:10254000A00D611D231F849F600D211D822F762FFA
:102550006A2F11249F5750409AF0F1F088234AF0D7
:10256000EE0FFF1FBB1F661F771F881F9150504043
:10257000A9F79E3F510580F00C9410120C945B1249
:102580005F3FE4F3983ED4F3869577956795B795CA
:10259000F795E7959F5FC1F7FE2B880F911D9695E4
:1025A000879597F908950E94EC11880B990B08956F
:1025B000AA1BBB1B51E107C0AA1FBB1FA617B70769
:1025C00010F0A61BB70B881F991F5A95A9F7809585
:1025D0009095BC01CD01089597FB072E16F4009449
:1025E00007D077FD09D00E94D81207FC05D03EF431
:1025F000909581959F4F0895709561957F4F0895AF
:10260000A1E21A2EAA1BBB1BFD010DC0AA1FBB1FF6
:10261000EE1FFF1FA217B307E407F50720F0A21B68
:10262000B30BE40BF50B661F771F881F991F1A94D5
:1026300069F760957095809590959B01AC01BD01FF
:10264000CF010895EE0FFF1F0590F491E02D09943E
:102650000F931F93CF93DF938230910510F482E0A4
:1026600090E0E091FC02F091FD0230E020E0B0E06B
:10267000A0E0309799F42115310509F44AC0281BD0
:10268000390B24303105D8F58A819B81611571059C
:1026900089F1FB0193838283FE0111C04081518146
:1026A0000281138148175907E0F04817590799F438
:1026B000109761F012960C93129713961C93329612
:1026C000CF01DF91CF911F910F9108950093FC02EC
:1026D0001093FD02F4CF2115310551F04217530735
:1026E00038F0A901DB019A01BD01DF01F801C1CF7A
:1026F000EF01F9CF9093FD028093FC02CDCFFE0154
:10270000E20FF31F8193919322503109398328837B
:10271000D7CF2091FA023091FB02232B41F4209174
:102720000601309107013093FB022093FA022091B9
:102730000401309105012115310541F42DB73EB753
:102740004091080150910901241B350BE091FA02D8
:10275000F091FB02E217F307A0F42E1B3F0B2817A2
:10276000390778F0AC014E5F5F4F2417350748F00A
:102770004E0F5F1F5093FB024093FA028193919397
:102780009FCFF0E0E0E09CCFCF93DF930097E9F09C
:10279000FC01329713821282A091FC02B091FD02DB
:1027A000ED0130E020E01097A1F420813181820F0B
:1027B000931F2091FA023091FB022817390709F084
:1027C00061C0F093FB02E093FA02DF91CF9108958C
:1027D000EA01CE17DF07E8F54A815B819E014115CA
:1027E0005105B1F7E901FB83EA8349915991C40F7F
:1027F000D51FEC17FD0761F4808191810296840F4B
:10280000951FE90199838883828193819B838A83C1
:10281000F0E0E0E012968D919C9113970097B9F546
:102820002D913C911197CD010296820F931F20911B
:10283000FA023091FB022817390739F6309751F523
:102840001092FD021092FC02B093FB02A093FA02D8
:10285000BCCFD383C28340815181840F951FC81799
:10286000D90761F44E5F5F4F88819981480F591FE6
:10287000518340838A819B81938382832115310513
:1028800009F0B0CFF093FD02E093FC029ECFFD0172
:10289000DC01C0CF13821282D7CFB0E0A0E0E3E525
:1028A000F4E10C9415158C01009751F4CB010E94B2
:1028B00028138C01C801CDB7DEB7E0E10C943115C7
:1028C000FC01E60FF71F9C0122503109E217F307C4
:1028D00008F49DC0D901CD91DC911197C617D70797
:1028E00098F0C530D10530F3CE01049786179707CD
:1028F00008F3C61BD70B2297C193D1936D937C939A
:10290000CF010E94C413D6CF5B01AC1ABD0A4C01A3
:102910008C0E9D1EA091FC02B091FD02512C412C09
:10292000F12CE12C109731F58091FA029091FB0285
:102930008815990509F05CC04616570608F058C07E
:102940008091040190910501009741F48DB79EB7E5
:102950004091080150910901841B950BE817F90774
:1029600008F055C0F093FB02E093FA02F90171837D
:102970006083A0CF8D919C91119712966C901297C5
:1029800013967C901397A815B90559F56C0142E090
:10299000C40ED11CCA14DB0420F1AC014A195B0936
:1029A000DA011296159780F0628273825183408318
:1029B000D9016D937C93E114F10471F0D701139662
:1029C000FC93EE93129776CF22968C0F9D1FF90100
:1029D00091838083F301EFCFF093FD02E093FC023B
:1029E00069CF4816590608F42C017D01D3019ACF0E
:1029F000CB010E9428137C01009749F0AE01B80179
:102A00000E940A15C8010E94C413870153CF10E029
:102A100000E050CFFB01DC0102C001900D9241505B
:102A20005040D8F708952F923F924F925F926F9245
:102A30007F928F929F92AF92BF92CF92DF92EF924E
:102A4000FF920F931F93CF93DF93CDB7DEB7CA1BCF
:102A5000DB0B0FB6F894DEBF0FBECDBF09942A88FA
:102A6000398848885F846E847D848C849B84AA84A2
:102A7000B984C884DF80EE80FD800C811B81AA812F
:102A8000B981CE0FD11D0FB6F894DEBF0FBECDBFFA
:102A9000ED01089510E0CAE7D0E004C0FE010E94F5
:0E2AA00022132196CB37D107C9F7F894FFCF48
:102AAE000E01D3010000FE02800000000000900D18
:102ABE008D0D890D000000007D01DD000A01CA01A7
:102ACE003B0119012D0100000000F103DD00860419
:102ADE00F0034D046504D8030D0A002F2F2727227B
:102AEE00225C5C6208660C6E0A720D7409005C75DD
:102AFE0030303030006E756C6C0074727565006627
:102B0E00616C73650046616C686120616F206C6555
:102B1E007220646F2044485421006964004461644B
:102B2E006F7320656E766961646F733A2000746509
:102B3E006D706572617475726100756D6964616442
:102B4E00650053697374656D6120696E69636961AF
:102B5E00646F2E20416775617264616E646F206CC4
:102B6E00656974757261206465206461646F732E8B
:0A2B7E002E2E006573703031000048
:00000001FF
